:020000040800F2
:1000000000000220D12300085D22000865220008BC
:100010006D220008752200087D2200080000000003
:100020000000000000000000000000008522000821
:100030009322000800000000A1220008B12200085D
:10004000212400082124000821240008212400087C
:10005000212400082124000821240008212400086C
:10006000212400082124000821240008212400085C
:10007000212400082124000821240008212400084C
:100080002124000821240008212400080000000089
:100090000000000000000000000000002124000813
:1000A000212400082124000821240008212400081C
:1000B000212400082124000821240008212400080C
:1000C00021240008212400082124000821240008FC
:1000D00021240008E5220008212400080000000077
:1000E0002124000821240008212400080000000029
:1000F00000000000000000000000000021240008B3
:100100000000000021240008212400082124000808
:1001100000000000000000000000000000000000DF
:10012000212400082124000821240008212400089B
:100130002124000800000000000000000000000072
:100140000000000000000000000000002124000862
:10015000212400082124000821240008212400086B
:1001600021240008212400080000000000000000F5
:10017000000000000000000000000000000000007F
:100180000000000021240008000000000000000022
:080190002124000821240008CD
:1001A00010B5054C237833B9044B13B10448AFF3B1
:1001B00000800123237010BD7400002000000000A7
:1001C000809D000808B5034B1BB103490348AFF3FA
:1001D000008008BD0000000078000020809D00081D
:1001E000034613F8012B002AFBD1181A0138704777
:1001F00001F0FF01102A2BDB10F0070F08D010F8D8
:10020000013B013A8B422DD010F0070F42B3F6D1DB
:10021000F0B441EA012141EA014122F007047FF0F4
:1002200000070023F0E80256083C85EA010586EA4B
:10023000010685FA47F5A3FA87F586FA47F6A5FA87
:1002400087F68EB9EED1F0BC01F0FF0102F0070293
:1002500032B110F8013B013A83EA010313B1F8D13E
:100260000020704701387047002D06BF354603381F
:10027000073815F0010F07D1013015F4807F02BF58
:10028000013015F4C03F0130F0BC0138704700BFA9
:1002900053B94AB9002908BF00281CBF4FF0FF31ED
:1002A0004FF0FF3000F06AB9ADF1080C6DE904CEF3
:1002B00000F006F8DDF804E0DDE9022304B0704741
:1002C0002DE9F047089D0C46002B4ED194468C45F5
:1002D0008646B2FA82F262D94AB1C2F12003914055
:1002E00020FA03F30CFA02FC194300FA02FE4FEA6B
:1002F0001C471FFA8CF6B1FBF7F44FEA1E4307FBCD
:10030000141143EA014304FB06F199420AD91CEB9C
:10031000030304F1FF3080F01281994240F20F8113
:10032000023C6344591A1FFA8EF3B1FBF7F007FB46
:10033000101143EA014300FB06F69E420AD91CEB6A
:10034000030300F1FF3180F0FC809E4240F2F9800F
:10035000634402389B1B40EA044000211DB1D34096
:100360000022C5E90032BDE8F0878B4205D90DB106
:10037000C5E9000100210846F5E7B3FA83F1002939
:1003800046D1A34202D39042C0F0F080861A64EBBB
:1003900003030120002DE6D0C5E90063E3E7002A4E
:1003A00040F09080A1EB0C044FEA1C481FFA8CF738
:1003B0000121B4FBF8F64FEA1E4308FB164443EA5A
:1003C000044307FB06F0984208D91CEB030306F12F
:1003D000FF3402D2984200F2CD8026461C1A1FFA42
:1003E0008EF3B4FBF8F008FB104443EA044300FB2F
:1003F00007F79F4208D91CEB030300F1FF3402D238
:100400009F4200F2B0802046DB1B40EA0640A5E791
:10041000C1F120068B4022FA06F71F4320FA06FCA2
:1004200004FA01F343EA0C03F44000FA01F8380C33
:100430004FEA1349B4FBF0FE1FFA87FC00FB1E4491
:1004400049EA04440EFB0CF9A14502FA01F20AD96B
:100450003C190EF1FF3A80F08480A14540F2818082
:10046000AEF1020E3C44A4EB09041FFA83F9B4FB7D
:10047000F0F300FB134449EA044403FB0CFCA445DD
:1004800007D93C1903F1FF3067D2A44565D9023B77
:100490003C4443EA0E40A0FB0293A4EB0C049C42B4
:1004A000CE469C4651D34ED055B1B8EB0E0364EB0B
:1004B0000C0404FA06F6CB401E43CC40C5E90064A8
:1004C000002150E7C2F1200320FA03F10CFA02FCEC
:1004D00024FA03F394400C434FEA1C4800FA02FE4E
:1004E0001FFA8CF7B3FBF8F008FB1031230C43EA3A
:1004F000014300FB07F1994208D91CEB030300F10B
:10050000FF362CD299422AD9023863445B1AA4B22E
:10051000B3FBF8F108FB113344EA034401FB07F392
:10052000A34208D91CEB040401F1FF3613D2A34205
:1005300011D902396444E41A41EA004139E704461A
:10054000F0E6084606E7C845AED2B9EB020E63EB0B
:10055000070C0138A8E73146EDE7034699E7304636
:10056000D4E7D6467FE7634402384DE70646234684
:1005700008460FE7023E634430E700BF704700BF04
:1005800080B582B000AF78604FF400411A4802F0A5
:1005900038FB7B681B68194A934228D1184B1B888B
:1005A000C62B17D8164B1B885A1C91B2144A1180BF
:1005B0001A46144B1978144B9954124B1B780A2B7A
:1005C00002D1124B01221A7001220E49104804F088
:1005D00085FD0CE00A4B00221A80C82200210A483F
:1005E00008F04EFF01220749094804F077FD00BFDB
:1005F0000837BD4680BD00BF00000240001001402A
:100600009601002098010020900000209901002010
:100610002C23002080B500AF054B1B78002B01D1A7
:10062000002302E0034801F039FB184680BD00BFFB
:10063000990100209000002080B500AF00F0E2FD9D
:1006400002F0A8FF01224FF400410B4802F0C0FA6B
:1006500001210A4804F088F8034641F2342293420B
:1006600006D001F0A3FA01F0C1FA01F049FA01E065
:1006700001F052FA00BF80BD000402402C2200208D
:1006800080B500AF01F052FA01F0CEFA4FF40051FC
:10069000084802F0B6FA4FF40041074802F0B1FAF8
:1006A000064B01221A70FFF7B5FFC82001F02CFF9E
:1006B00000BF80BD00080240000402409A010020F3
:1006C00080B582B000AF01F013FF7860184B1B6853
:1006D0007A68D31A312B27D90421164801F002F881
:1006E0000346002B09D00121124800F0FBFF03460E
:1006F000002B02D000F0D8FD12E010210D4800F0D0
:10070000F1FF0346002B09D004210A4800F0EAFF5C
:100710000346002B02D001F081FB01E0FFF7B0FFA0
:10072000034A7B68136000E000BF0837BD4680BD08
:100730009C0100200000024080B500AF0022012192
:10074000034802F045FA012001F0DEFE00BF80BD43
:100750000004024080B500AF01220121034802F0ED
:1007600037FA012001F0D0FE00BF80BD0004024036
:1007700080B582B000AF0346FB7100BF084B1B6819
:100780009B6803F00203022BF8D1F91D64230122B8
:10079000034804F08AF800BF0837BD4680BD00BF9B
:1007A000D422002080B582B000AF78600B467B80F9
:1007B00000BF084B1B689B6803F00203022BF8D1B3
:1007C0007A8864237968034804F06FF800BF08371B
:1007D000BD4680BDD422002080B584B002AFFF2387
:1007E000FB7100BF094B1B689B6803F00203022BDF
:1007F000F8D1BA1DF91D642300930123034804F0C6
:1008000098F9BB7918460837BD4680BDD422002030
:1008100080B582B000AF7860FFF7DEFF03461A466E
:100820007B681A7000BF0837BD4680BD80B582B0B6
:1008300000AF0A4B4FF4FA721A80FFF7CDFF034660
:10084000FB71FB79FF2B04D0044B1B889BB2002B60
:10085000F3D1FB7918460837BD4680BD7E230020C2
:1008600080B584B000AF41F6FF73FB60FFF772FF05
:100870000023BB6005E0FF20FFF77AFFBB68013370
:10088000BB60BB68092BF6DDFFF756FF40233B70CA
:1008900000237B700023BB700023FB7000233B719F
:1008A00095237B713B4606211846FFF77BFF02E04C
:1008B000FB68013BFB60FFF78FFF0346012B02D073
:1008C000FB68002BF4D1FFF745FFFF20FFF750FF37
:1008D000034B01221A7000BF1037BD4680BD00BF18
:1008E000A101002080B400AF034B00221A7000BFAA
:1008F000BD465DF8047B7047A101002080B400AFC5
:10090000034B1B781846BD465DF8047B704700BF5B
:10091000A101002080B584B000AF78603960144B2D
:10092000C8221A80FFF758FF0346FB73FB7BFF2B9F
:1009300004D10F4B1B889BB2002BF3D1FB7BFE2B0A
:1009400001D000230FE07B685A1C7A601846FFF73D
:100950005FFF3B685A1E3A60002BF4D1FFF73CFF63
:10096000FFF73AFF012318461037BD4680BD00BF90
:100970007D23002080B584B000AF78600B46FB700B
:100980000023BB73FFF752FF0346FF2B01D0002368
:100990002FE0FB781846FFF7EBFEFB78FD2B20D00D
:1009A0004FF400717868FFF7FDFEFFF715FFFFF7C2
:1009B00013FF0BE0FFF710FF0346FB73FB7B03F015
:1009C0001F03052B06D0BB7B0133BB73BB7B402BC6
:1009D000F0D900E000BF00BFFFF7FEFE0346002B8A
:1009E000FAD0FB7B03F01F03052B01D1012300E0AC
:1009F000002318461037BD4680BD80B584B000AFD7
:100A000003463960FB71FFF711FF0346FF2B01D04E
:100A1000FF2342E0FB791846FFF7AAFE3B681B0E56
:100A2000DBB21846FFF7A4FE3B681B0CDBB218468E
:100A3000FFF79EFE3B681B0ADBB21846FFF798FEE5
:100A40003B68DBB21846FFF793FEFB79402B02D1DF
:100A50009523FB7307E0FB79482B02D18723FB73B7
:100A600001E00123FB73FB7B1846FFF781FEFB7956
:100A70004C2B01D1FFF7B0FE0A23BB73FFF7ACFE8E
:100A800003467B7397F90D30002B05DABB7B013BE6
:100A9000BB73BB7B002BF1D17B7B18461037BD4667
:100AA00080BD000090B585B000AF0346FB71FB79B7
:100AB000002B01D00123D6E06D4B1B78DBB203F095
:100AC0000203002B03D06A4B1B78DBB2CBE0FFF7AD
:100AD000C7FEFFF731FE0023BB7300214020FFF764
:100AE0008CFF0346012B40F0A680624B4FF47A72D4
:100AF0001A804FF4D5714820FFF77FFF0346012B82
:100B000058D10023FB730CE0FC7BFFF765FE034626
:100B10001A4604F110033B4403F8082CFB7B013315
:100B2000FB73FB7B032BEFD9BB7A012B40F0838057
:100B3000FB7AAA2B7FD100217720FFF75EFF0346C7
:100B4000012B07D84FF080416920FFF756FF03467D
:100B5000002B05D0474B1B889BB2002BEBD100E04C
:100B600000BF444B1B889BB2002B64D000217A202D
:100B7000FFF743FF0346002B5DD10023FB730CE01E
:100B8000FC7BFFF729FE03461A4604F110033B44A1
:100B900003F8082CFB7B0133FB73FB7B032BEFD9A2
:100BA0003B7A03F04003002B01D00C2300E0042328
:100BB000BB7340E000217720FFF71FFF0346012BA6
:100BC00008D800216920FFF718FF0346012B01D840
:100BD000022300E00123BB73BB7B022B0ED100215B
:100BE0007720FFF70AFF0346012B0ED8002169206A
:100BF000FFF703FF0346002B07D10DE00021412042
:100C0000FFF7FBFE0346002B05D01A4B1B889BB257
:100C1000002BE1D100E000BF164B1B889BB2002BDC
:100C200007D04FF400715020FFF7E7FE0346002B7A
:100C300001D00023BB73104ABB7B1370FFF78AFD02
:100C4000FFF7CAFDBB7B002B08D0094B1B78DBB23A
:100C500023F00103DAB2064B1A7001E0FFF742FEFF
:100C6000034B1B78DBB218461437BD4690BD00BF5E
:100C7000000000207D230020A001002080B483B06C
:100C800000AF0346FB71FB79002B01D0012302E08A
:100C9000044B1B78DBB218460C37BD465DF8047B6D
:100CA000704700BF0000002080B584B000AFB9607D
:100CB0007A603B600346FB73FB7B002B02D13B68F1
:100CC000002B01D1042351E02A4B1B78DBB203F047
:100CD0000103002B01D0032348E0274B1B7803F0CE
:100CE0000403002B02D17B685B027B60FFF724FDCD
:100CF0003B68012B11D179685120FFF77EFE034636
:100D0000002B29D14FF40071B868FFF703FE0346AA
:100D1000002B21D000233B601EE079685220FFF7B2
:100D20006CFE0346002B17D14FF40071B868FFF733
:100D3000F1FD0346002B0AD0BB6803F50073BB60CE
:100D40003B68013B3B603B68002BEDD100E000BFFE
:100D500000214C20FFF751FEFFF7FCFCFFF73CFDA4
:100D60003B68002B14BF01230023DBB21846103769
:100D7000BD4680BD00000020A001002080B584B0E9
:100D800000AFB9607A603B600346FB73FB7B002BCE
:100D900002D13B68002B01D104236BE0374B1B7859
:100DA000DBB203F00103002B01D0032362E0334BDD
:100DB0001B78DBB203F00403002B01D0022359E0BF
:100DC0002F4B1B7803F00403002B02D17B685B02DE
:100DD0007B60FFF7B1FC3B68012B10D1796858208C
:100DE000FFF70BFE0346002B3AD1FE21B868FFF750
:100DF000C1FD0346002B33D000233B6030E0204B85
:100E00001B7803F00203002B07D000217720FFF7A7
:100E1000F4FD39685720FFF7F0FD79685920FFF796
:100E2000ECFD0346002B1BD1FC21B868FFF7A2FDA7
:100E30000346002B0AD0BB6803F50073BB603B6818
:100E4000013B3B603B68002BEED100E000BFFD2181
:100E50000020FFF78FFD0346002B01D101233B60EB
:100E6000FFF778FCFFF7B8FC3B68002B14BF0123A9
:100E70000023DBB218461037BD4680BD00000020BD
:100E8000A001002090B58BB000AF03463A60FB7123
:100E90000B46BB713B683B62FB79002B01D00423FE
:100EA00013E1012387F82730BB79052B24D13B6A56
:100EB0001B78022B12D0022B1ADC002B02D0012B44
:100EC00006D015E0FFF70EFD002387F82730FAE083
:100ED000FFF7C6FC002387F82730F4E03B6A5C1C70
:100EE000FFF70CFD03462370002387F82730EAE064
:100EF000042387F82730E6E0764B1B78DBB203F05B
:100F00000103002B01D00323DFE0FFF715FCBB79C1
:100F10000D2B00F2C98001A252F823F01310000833
:100F2000550F000803100008A9100008A9100008B8
:100F3000A9100008A9100008A9100008A9100008AD
:100F4000A9100008A9100008251000084910000881
:100F50006D10000800214920FFF74FFD0346002BCC
:100F600040F0A68007F10C0310211846FFF7D2FCD1
:100F70000346002B00F09C803B7B9B09DBB2012BDE
:100F80000DD17B7D1A463B7D1B029BB213449BB265
:100F90000133FB83FB8B9A023B681A602DE07B7C5C
:100FA00003F00F03DAB2BB7DDB09DBB21344DAB224
:100FB0007B7D5B00DBB203F00603DBB21344DBB2E4
:100FC000023387F826303B7D9B09DBB21A46FB7C57
:100FD0009B009BB213449AB2BB7C9B029BB203F46E
:100FE00040639BB213449BB20133FB83FA8B97F8A7
:100FF0002630093B9A403B681A60002387F8273067
:1010000056E03B684FF400721A80002387F82730BF
:1010100055E0FFF70BFC0346FF2B4BD1002387F86D
:10102000273047E000214920FFF7E7FC0346002B6B
:1010300042D11021386AFFF76DFC0346002B3BD0EC
:10104000002387F8273037E000214A20FFF7D5FC3E
:101050000346002B32D11021386AFFF75BFC0346B0
:10106000002B2BD0002387F8273027E000217A209F
:10107000FFF7C3FC0346002B16D1002387F8263068
:101080000BE03C6A631C3B62FFF7A6FB0346237040
:1010900097F82630013387F8263097F82630032B4F
:1010A000EFD9002387F82730042387F8273006E09C
:1010B00000BF04E000BF02E000BF00E000BFFFF798
:1010C00049FBFFF789FB97F8273018462C37BD46B8
:1010D00090BD00BF0000002080B586B002AF03467F
:1010E000FB71FB7923F00F03FB73FB791B01BB73CF
:1010F000FB7B43F00C03DBB23B72FB7B43F008034A
:10110000DBB27B72BB7B43F00C03DBB2BB72BB7BFD
:1011100043F00803DBB2FB7207F10802642300937B
:1011200004234E21034801F0CBFE00BF1037BD461B
:1011300080BD00BF7422002080B586B002AF034698
:10114000FB71FB7923F00F03FB73FB791B01BB736E
:10115000FB7B43F00D03DBB23B72FB7B43F00903E7
:10116000DBB27B72BB7B43F00D03DBB2BB72BB7B9C
:1011700043F00903DBB2FB7207F10802642300931A
:1011800004234E21034801F09BFE00BF1037BD46EB
:1011900080BD00BF7422002080B582B000AF8020E7
:1011A000FFF79AFF00237B6005E02020FFF7C4FFD4
:1011B0007B6801337B607B68452BF6DD00BF00BF99
:1011C0000837BD4680BD80B582B000AF7860396019
:1011D0007B68002B03D07B68012B05D009E03B68BE
:1011E00043F080033B6004E03B6843F0C0033B6096
:1011F00000BF3B68DBB21846FFF76EFF00BF083741
:10120000BD4680BD80B500AF322001F07DF93020B1
:10121000FFF762FF052001F077F93020FFF75CFF50
:10122000012001F071F93020FFF756FF0A2001F08C
:101230006BF92020FFF750FF0A2001F065F9282004
:10124000FFF74AFF012001F05FF90820FFF744FF94
:10125000012001F059F90120FFF73EFF012001F0C4
:1012600053F9012001F050F90620FFF735FF012066
:1012700001F04AF90C20FFF72FFF00BF80BD80B5B9
:1012800082B000AF786006E07B685A1C7A601B78F9
:101290001846FFF751FF7B681B78002BF4D100BF85
:1012A00000BF0837BD4680BD80B584B000AF0123C4
:1012B000FB730023BB73FFF76FFFA64A3B4607CAC9
:1012C00083E80700A2E100F0C7F94FF40071A248DB
:1012D00001F097FCBB7B5B0010333B4413F8103CE0
:1012E00063F07F03DBB21846FFF7F6FE01F000F96A
:1012F00002469A4B1B68D31AB3F5FA7F0DD90E201C
:10130000FFF7EAFEFA2001F0FFF80F20FFF7E4FEF6
:1013100001F0EEF80346914A13600421904800F072
:10132000E1F90346002B0DD0BB7B5A1D8D4B83FB8F
:101330000231D317C91A0B465B000B445B00D11A6C
:101340000B46BB730221864800F0CCF90346002B04
:101350000DD0BB7B5A1C834B83FB0231D317C91AB8
:101360000B465B000B445B00D11A0B46BB7310218C
:101370007B4800F0B7F90346002B78D0BB7B002BED
:1013800010D1794B1B785A1C764B83FB02139910B2
:10139000D317C91A0B465B000B44DB00D11ACAB243
:1013A000714B1A70BB7B012B11D16F4B5B785A1CB0
:1013B0006E4B83FB021313445911D317C91A0B4602
:1013C0001B015B1A9B00D11ACAB2674B5A70BB7BD8
:1013D000022B11D1644B9B785A1C644B83FB021384
:1013E00013445911D317C91A0B461B015B1A9B00F2
:1013F000D11ACAB25C4B9A70BB7B032B11D15C4BE8
:101400009A785C4BA3FB0213D11A49080B441909C3
:101410000B465B015B1AD31ADBB20133DAB2544BD1
:101420009A70BB7B042B0FD1514B5A78524BA3FBC4
:101430000213D9080B465B000B449B00D31ADBB2A6
:101440000133DAB24A4B5A70BB7B052B0FD1484BA4
:10145000DB780133494A82FB03125111DA178A1AE9
:10146000642101FB02F29A1AD2B2414BDA700821D0
:101470003B4800F037F90346002B00F08480BB7B2B
:10148000002B11D1384B1B7803F11702354B83FB2E
:1014900002139910D317C91A0B465B000B44DB00EB
:1014A000D11ACAB2304B1A70BB7B012B12D12E4B12
:1014B0005B7803F13B022D4B83FB0213134459115C
:1014C000D317C91A0B461B015B1A9B00D11ACAB26B
:1014D000254B5A70BB7B022B12D1234B9B7803F117
:1014E0003B02224B83FB021313445911D317C91A31
:1014F0000B461B015B1A9B00D11ACAB21A4B9A7099
:10150000BB7B032B0BD11A4B9B78012B04D0184BC0
:101510009B78013BDBB200E01F23154A9370BB7B35
:10152000042B0BD1124B5B78012B04D0104B5B7852
:10153000013BDBB200E00C230D4A5370BB7B052B53
:1015400021D10B4BDB78002B1AD0094BDB78013B08
:10155000DBB216E0989D000800040240BC010020A8
:1015600000000240ABAAAA2AA4010020898888882A
:10157000B801002085104208ABAAAAAA1F85EB512A
:101580006323304AD37004212F4801F009FB03463E
:10159000012B17D102212C4801F002FB0346012B3D
:1015A00010D1322000F0B0FF0421274801F0F8FAF2
:1015B0000346012B06D10221234801F0F1FA03462C
:1015C000012B28D00121204801F0EAFA0346012B23
:1015D00019D102211C4801F0E3FA0346002B12D175
:1015E000322000F091FF0121174801F0D9FA03469B
:1015F000012B08D10221144801F0D2FA0346002B36
:1016000001D10023FB73114801F0B3FFFB7B002BDA
:101610007FF459AE00E000BF0C20FFF75DFDFFF73F
:10162000BBFDC82000F070FF00220649084802F008
:10163000F0FE00220749064802F0F3FD00BF103714
:10164000BD4680BDB801002000000240C822002035
:101650002C220020A401002080B586B002AF3B46BA
:1016600010220021184607F00BFF1A4B9B781A46F0
:10167000184B5B781946174BDB78384600930B46BE
:10168000154907F0DDFEC020FFF726FD3B46184652
:10169000FFF7F5FD3B4610220021184607F0F0FE4B
:1016A0000E4B1B781A460D4B5B7819460B4B9B78FB
:1016B000384600930B460A4907F0C2FE8020FFF728
:1016C0000BFD3B461846FFF7DAFD00BF1037BD465D
:1016D00080BD00BFB8010020A49D0008A401002027
:1016E000BC9D000880B582B000AF78600B467B805F
:1016F0004FF40071124801F084FA7B88194678682B
:1017000001F04EFA0346012B15D14B2000F0FCFEF0
:101710007B881946786801F043FA0346012B0AD109
:1017200000BF7B881946786801F03AFA0346002B1F
:10173000F7D0012300E0002318460837BD4680BDDE
:101740000004024080B500AF00F06CFE00F022F80B
:1017500000F024F900F0C2F800F0F6F804F0E2FB23
:1017600000F08EF800F074FAFEF766FF00F028FB38
:1017700001220549054803F0B1FCFEF7A1FF04482A
:1017800001F0F7FE00BFF8E7980100202C230020AD
:10179000C822002080B594B000AF07F120033022AA
:1017A0000021184607F06CFE07F10C0300221A60B6
:1017B0005A609A60DA601A610023BB602E4B1B6C82
:1017C0002D4A43F0805313642B4B1B6C03F0805362
:1017D000BB60BB6800237B60284B1B68274A43F42F
:1017E00040431360254B1B6803F440437B607B68D8
:1017F0000F233B624FF480337B620123BB620123E2
:10180000FB6210233B6301237B630223BB634FF422
:101810008003FB630C233B6460237B640223BB6473
:101820000423FB6407F12003184601F0C7FE0346BA
:10183000002B01D000F05EF90F23FB6002233B6117
:1018400000237B614FF48053BB610023FB6107F1F0
:101850000C030321184602F029F90346002B01D09E
:1018600000F048F900220021002002F005FA00BF34
:101870005037BD4680BD00BF0038024000700040B8
:1018800080B500AF124B134A1A60114B124A5A60CE
:101890000F4B00229A600E4B0022DA600C4B4FF483
:1018A00080421A610A4B00225A61094B00229A6158
:1018B000074B0022DA61064B00221A62044801F04D
:1018C000BBF90346002B01D000F014F900BF80BD26
:1018D0007422002000540040A086010080B500AFB3
:1018E000174B184A1A60164B4FF482725A60144B09
:1018F00000229A60124B0022DA60114B00221A611A
:101900000F4B00225A610E4B4FF400729A610C4B40
:101910001022DA610A4B00221A62094B00225A6235
:10192000074B00229A62064B0A22DA62044802F050
:1019300033FF0346002B01D000F0DCF800BF80BD70
:10194000D42200200030014080B500AF114B124A74
:101950001A60104B4FF4E1325A600E4B00229A602D
:101960000C4B0022DA600B4B00221A61094B0C224F
:101970005A61084B00229A61064B0022DA61054841
:1019800003F05CFB0346002B01D000F0B3F800BF6E
:1019900080BD00BF2C2300200010014080B58AB01C
:1019A00000AF07F1140300221A605A609A60DA60EF
:1019B0001A6100233B614B4B1B6B4A4A43F0040303
:1019C0001363484B1B6B03F004033B613B6900232B
:1019D000FB60444B1B6B434A43F080031363414B52
:1019E0001B6B03F08003FB60FB680023BB603D4B77
:1019F0001B6B3C4A43F0010313633A4B1B6B03F030
:101A00000103BB60BB6800237B60364B1B6B354A10
:101A100043F002031363334B1B6B03F002037B6041
:101A20007B6800224FF400512F4801F0D1F80022CA
:101A300048F201212D4801F0CBF800224FF400417B
:101A40002B4801F0C5F84FF400537B610123BB61C3
:101A50000023FB6100233B6207F11403194622486F
:101A600000F01AFF1F237B610023BB610223FB618F
:101A700007F1140319461E4800F00EFF48F2012337
:101A80007B610123BB610023FB6100233B6207F103
:101A900014031946154800F0FFFE4FF480737B6174
:101AA0000223BB610023FB6100233B6200237B62B6
:101AB00007F1140319460E4800F0EEFE4FF4004300
:101AC0007B610123BB610023FB6100233B6207F1C3
:101AD00014031946064800F0DFFE00BF2837BD4654
:101AE00080BD00BF003802400008024000040240F0
:101AF0000000024080B400AF72B600BF00BFFDE737
:101B000080B500AF41F234220121024802F012FEFA
:101B100000BF80BD2C22002080B500AF012102480B
:101B200002F022FE00BF80BD2C22002080B588B0CC
:101B300002AF00237B613B4600221A605A609A6024
:101B4000DA601A613B4600221946134802F003FC92
:101B500007F11403002219460F4802F0DEFC3B781F
:101B60001A467B781946BB7800930B460B490C4804
:101B700007F066FCBB7D1A467B7D1946FB7D03F5AD
:101B8000FA6300930B460749074807F059FC00BF6A
:101B90001837BD4680BD00BF2C220020D49D000810
:101BA00058010020E49D00087801002080B586B02F
:101BB00000AF3B1D00221A605A609A60DA601A6119
:101BC00016233B711F237B710023BB7100233B61F4
:101BD00000237B613B1D00221946034802F021FBD4
:101BE00000BF1837BD4680BD2C22002080B582B0D2
:101BF00000AF00237B6002233B7103237B71112321
:101C0000BB712523FB713B1D01221946054802F0DB
:101C100000FC0346002B01D0FFF76CFF00BF083724
:101C2000BD4680BD2C22002080B500AF8020FFF78C
:101C300053FA0548FFF723FBC020FFF74DFA03488E
:101C4000FFF71DFB00BF80BD580100207801002078
:101C500080B500AF0F4B104A1A600E4B00225A603D
:101C60000C4B7F229A600B4BFF22DA60094B00225B
:101C70001A61084B00225A61064B00229A610548FE
:101C800002F04CFA0346002B01D0FFF733FF00BFF0
:101C900080BD00BF2C22002000280040F0B59BB082
:101CA00004AF786007F14403002219463A4802F075
:101CB00052FB07F1400300221946374802F02DFC81
:101CC00097F842301D4697F841301E4697F843304A
:101CD00003F5FA6397F8442097F8451097F8460003
:101CE000044607F10C0003940291019200933346DD
:101CF0002A462A4907F0A4FB01222949294806F06F
:101D000059FB03461A46284B1A70122227492848C5
:101D100006F096FB03461A46234B1A70244BDB68E9
:101D20001946234806F090FF07F10C031846FEF70A
:101D300057FA024607F10C0100231D4806F048FD42
:101D40007868FEF74DFA024600237968184806F0D5
:101D50003FFD002302221749154806F039FD1448BB
:101D600006F048FF01220E49002006F023FB97F8F9
:101D700045301A46104B1A600F4B1A680F4B1B6800
:101D80009A4205D000F01CF80B4B1B680B4A1360FD
:101D900000BF5C37BD46F0BD2C220020F49D00083A
:101DA000189E0008C0010020282200204C2200209C
:101DB000F81100201C9E00087423002078230020C6
:101DC000B0B58AB004AF3B1D00221946104802F09E
:101DD000C2FA3B46002219460D4802F09EFBBB7832
:101DE0001C467B781D46FB7803F5FA633A797979CE
:101DF000B87903900291019200932B46224605493F
:101E0000054807F01DFB00BF1837BD46B0BD00BF39
:101E10002C220020209E00084C22002080B5ADF529
:101E2000835D00AF012307F5825202F11F02137098
:101E3000FFF7B2F9BEE007F12003043B0122664937
:101E4000184606F0B7FA034607F5825202F11E0261
:101E5000137007F5825303F11E031B78002B02D089
:101E60005E48FFF70CFA07F12002083A07F1200359
:101E70000C3B1946584807F00BF9034607F5825208
:101E800002F11E02137007F5825303F11E031B7843
:101E9000002B02D05248FFF7F2F907F1600353F824
:101EA000483C5B891A4607F1600353F84C3C02FB3F
:101EB00003F35B029B0A07F5825202F118021360DA
:101EC00007F1600353F8483CDB69023B07F160020D
:101ED00052F8482C528902FB03F35B029B0A07F578
:101EE000825202F11402136007F5825303F11403C6
:101EF0001B68002B02D13948FFF7C1F900210020EF
:101F0000FFF761F907F120031C3B07F5825202F14C
:101F1000180212683349184607F092FA07F12003B5
:101F20001C3B1846FFF7ABF900210120FFF74BF9E6
:101F300007F120031C3B10220021184607F0A0FAED
:101F400007F120031C3B07F5825202F114021268CC
:101F50002549184607F074FA07F120031C3B184680
:101F6000FFF78DF90121214800F01AFE0346012BED
:101F70001DD102211D4800F013FE0346002B16D18F
:101F8000322000F0C1FA0121184800F009FE034692
:101F9000012B0CD10221154800F002FE0346002B54
:101FA00005D1002307F5825202F11F021370104879
:101FB00001F0DFFA07F5825303F11F031B78002BB2
:101FC0007FF439AFFFF7E8F8C82000F09DFA00BFB2
:101FD00007F58357BD4680BD189E0008509E000837
:101FE0005C9E0008709E0008809E00080000024071
:101FF000C822002080B483B000AF00237B60104B68
:102000005B6C0F4A43F4804353640D4B5B6C03F4E9
:1020100080437B607B6800233B60094B1B6C084A54
:1020200043F080531364064B1B6C03F080533B60FA
:102030003B6800BF0C37BD465DF8047B704700BFAE
:102040000038024080B58AB000AF786007F1140311
:1020500000221A605A609A60DA601A617B681B6815
:10206000194A93422BD100233B61184B1B6B174A33
:1020700043F002031363154B1B6B03F002033B6138
:102080003B69C0237B611223BB610023FB610323F7
:102090003B6204237B6207F1140319460C4800F0ED
:1020A000FBFB0023FB60094B1B6C084A43F4001345
:1020B0001364064B1B6C03F40013FB60FB6800BF4A
:1020C0002837BD4680BD00BF0054004000380240A4
:1020D0000004024080B588B000AF786007F10803C3
:1020E00000221A605A609A60DA601A615A617B684D
:1020F0001B680C4A934211D10223BB604FF48073DA
:10210000BB6107F10803184601F018FF0346002BD6
:1021100001D0FFF7EFFC044B01221A6000BF20370B
:10212000BD4680BD002800403C0E474280B58AB0C5
:1021300000AF786007F1140300221A605A609A60B9
:10214000DA601A617B681B68194A93422BD100231D
:102150003B61184B5B6C174A43F480535364154B37
:102160005B6C03F480533B613B690023FB60114BC4
:102170001B6B104A43F0010313630E4B1B6B03F000
:102180000103FB60FB68E0237B610223BB6100234A
:10219000FB6103233B6205237B6207F114031946AD
:1021A000054800F079FB00BF2837BD4680BD00BF61
:1021B00000300140003802400000024080B58AB083
:1021C00000AF786007F1140300221A605A609A6029
:1021D000DA601A617B681B681D4A934234D1002380
:1021E0003B611C4B5B6C1B4A43F010035364194B5F
:1021F0005B6C03F010033B613B690023FB60154BF4
:102200001B6B144A43F001031363124B1B6B03F067
:102210000103FB60FB684FF4C0637B610223BB6179
:102220000023FB6103233B6207237B6207F1140356
:102230001946094800F030FB00220021252000F05B
:1022400062FA252000F07BFA00BF2837BD4680BD2A
:1022500000100140003802400000024080B400AF8E
:1022600000BFFDE780B400AF00BFFDE780B400AF62
:1022700000BFFDE780B400AF00BFFDE780B400AF52
:1022800000BFFDE780B400AF00BFBD465DF8047B32
:10229000704780B400AF00BFBD465DF8047B704757
:1022A00080B400AF00BFBD465DF8047B70470000FE
:1022B00080B500AF0A4B1B78DBB20133DAB2084BB2
:1022C0001A70074B1B78DBB2092B04D9044B002290
:1022D0001A7000F011F800F0F7F800BF80BD00BFE1
:1022E0007C23002080B500AF024802F01DFF00BF34
:1022F00080BD00BF2C23002080B400AF0E4B1B78A4
:10230000DBB2002B06D00C4B1B78DBB2013BDAB200
:10231000094B1A70094B1B78DBB2002B06D0074B18
:102320001B78DBB2013BDAB2044B1A7000BFBD462A
:102330005DF8047B704700BF7D2300207E230020D2
:1023400080B586B000AF7860144A154BD31A7B6114
:102350007B693B61134B1B68002B02D1114B124A66
:102360001A60104B1A687B6813443A699A4207D284
:1023700007F08EF803460C221A604FF0FF3309E095
:10238000084B1B68FB60074B1A687B681344054ABF
:102390001360FB6818461837BD4680BD0000022058
:1023A00000040000802300201027002080B400AF2C
:1023B000064BD3F88830054A43F47003C2F88830DE
:1023C00000BFBD465DF8047B704700BF00ED00E034
:1023D000DFF834D0FFF7EAFF0C480D490D4A00231F
:1023E00002E0D458C4500433C4188C42F9D30A4ACA
:1023F0000A4C002301E013600432A242FBD307F031
:102400004DF8FFF79FF97047000002200000002000
:102410007400002074A30008740000200C27002022
:10242000FEE7000080B500AF0E4B1B680D4A43F479
:10243000007313600B4B1B680A4A43F480631360FC
:10244000084B1B68074A43F480731360032000F0B5
:102450004FF90F2000F008F8FFF7CCFD00231846D5
:1024600080BD00BF003C024080B582B000AF786004
:10247000124B1A68124B1B7819464FF47A73B3FB50
:10248000F1F3B2FBF3F3184600F067F90346002BB3
:1024900001D001230EE07B680F2B0AD80022796857
:1024A0004FF0FF3000F02FF9064A7B6813600023DD
:1024B00000E0012318460837BD4680BD0400002017
:1024C0000C0000200800002080B400AF064B1B78F1
:1024D0001A46064B1B681344044A136000BFBD46EE
:1024E0005DF8047B704700BF0C00002084230020AF
:1024F00080B400AF034B1B681846BD465DF8047BF3
:10250000704700BF8423002080B584B000AF78609E
:10251000FFF7EEFFB8607B68FB60FB68B3F1FF3F3D
:1025200005D00A4B1B781A46FB681344FB6000BFBA
:10253000FFF7DEFF0246BB68D31AFA689A42F7D863
:1025400000BF00BF1037BD4680BD00BF0C0000209B
:1025500080B485B000AF78607B6803F00703FB6050
:102560000C4BDB68BB60BA684FF6FF031340BB60DF
:10257000FB681A02BB68134343F0BF6343F40033A4
:10258000BB60044ABB68D36000BF1437BD465DF82A
:10259000047B704700ED00E080B400AF044BDB68C3
:1025A0001B0A03F007031846BD465DF8047B70471D
:1025B00000ED00E080B483B000AF0346FB7197F9F3
:1025C0000730002B0BDBFB7903F01F02074997F95B
:1025D00007305B09012000FA02F241F8232000BF16
:1025E0000C37BD465DF8047B704700BF00E100E09A
:1025F00080B483B000AF03463960FB7197F90730B0
:10260000002B0ADB3B68DAB20C4997F9073012015C
:10261000D2B20B4483F800230AE03B68DAB20849DF
:10262000FB7903F00F03043B1201D2B20B441A767C
:1026300000BF0C37BD465DF8047B704700E100E049
:1026400000ED00E080B489B000AFF860B9607A6056
:10265000FB6803F00703FB61FB69C3F10703042B6D
:1026600028BF0423BB61FB690433062B02D9FB6935
:10267000033B00E000237B614FF0FF32BB6902FAAD
:1026800003F3DA43BB681A407B699A404FF0FF318D
:102690007B6901FA03F3D9437B680B401343184667
:1026A0002437BD465DF8047B7047000080B582B0DA
:1026B00000AF78607B68013BB3F1807F01D30123D9
:1026C0000FE00A4A7B68013B53600F214FF0FF3057
:1026D000FFF78EFF054B00229A60044B07221A6019
:1026E000002318460837BD4680BD00BF10E000E05B
:1026F00080B582B000AF78607868FFF729FF00BF2F
:102700000837BD4680BD80B586B000AF0346B960CE
:102710007A60FB7300237B61FFF73EFF78617A6884
:10272000B9687869FFF78EFF024697F90F301146B6
:102730001846FFF75DFF00BF1837BD4680BD80B566
:1027400082B000AF0346FB7197F907301846FFF7D8
:1027500031FF00BF0837BD4680BD80B582B000AFF5
:1027600078607868FFF7A2FF034618460837BD4631
:1027700080BD80B584B000AF78607B689B6DFB60E6
:10278000FFF7B6FEB8607B6893F83530DBB2022BFA
:1027900008D07B6880225A657B68002283F8342049
:1027A000012352E07B681B681A687B681B6822F073
:1027B00016021A607B681B685A697B681B6822F0E6
:1027C00080025A617B681B6C002B03D17B689B6C79
:1027D000002B07D07B681B681A687B681B6822F097
:1027E00008021A607B681B681A687B681B6822F005
:1027F00001021A6013E0FFF77BFE0246BB68D31AA2
:10280000052B0CD97B6820225A657B68032283F84C
:1028100035207B68002283F83420032315E07B6891
:102820001B681B6803F00103002BE4D17B68DB6DA0
:102830003F229A40FB689A607B68012283F835202A
:102840007B68002283F83420002318461037BD46E9
:1028500080BD80B483B000AF78607B6893F835307A
:10286000DBB2022B04D07B6880225A6501230CE086
:102870007B68052283F835207B681B681A687B68B3
:102880001B6822F001021A60002318460C37BD466F
:102890005DF8047B7047000080B489B000AF7860B9
:1028A000396000237B6100233B610023BB6100236F
:1028B000FB6159E10122FB6902FA03F37B613B688A
:1028C0001B687A6913403B613A697B699A4240F020
:1028D00048813B685B6803F00303012B05D03B682C
:1028E0005B6803F00303022B30D17B689B68BB61FC
:1028F000FB695B00032202FA03F3DB43BA6913406E
:10290000BB613B68DA68FB695B0002FA03F3BA69F2
:102910001343BB617B68BA699A607B685B68BB6183
:102920000122FB6902FA03F3DB43BA691340BB617E
:102930003B685B681B0903F00102FB6902FA03F3C1
:10294000BA691343BB617B68BA695A603B685B68CC
:1029500003F00303032B17D07B68DB68BB61FB69C3
:102960005B00032202FA03F3DB43BA691340BB6145
:102970003B689A68FB695B0002FA03F3BA69134388
:10298000BB617B68BA69DA603B685B6803F003038C
:10299000022B23D1FB69DA087B68083253F8223016
:1029A000BB61FB6903F007039B000F2202FA03F3EC
:1029B000DB43BA691340BB613B681A69FB6903F0EA
:1029C00007039B0002FA03F3BA691343BB61FB6977
:1029D000DA087B680832B96943F822107B681B6803
:1029E000BB61FB695B00032202FA03F3DB43BA69B4
:1029F0001340BB613B685B6803F00302FB695B004B
:102A000002FA03F3BA691343BB617B68BA691A60BF
:102A10003B685B6803F44033002B00F0A280002386
:102A2000FB60574B5B6C564A43F480435364544BF2
:102A30005B6C03F48043FB60FB68524AFB699B08B4
:102A4000023352F82330BB61FB6903F003039B00A0
:102A50000F2202FA03F3DB43BA691340BB617B68C0
:102A6000494A934219D07B68484A934213D07B6805
:102A7000474A93420DD07B68464A934207D07B6811
:102A8000454A934201D1042308E0072306E00323CB
:102A900004E0022302E0012300E00023FA6902F0CF
:102AA000030292009340BA691343BB613549FB6945
:102AB0009B080233BA6941F82320384B9B68BB61FD
:102AC0003B69DB43BA691340BB613B685B6803F455
:102AD0008013002B03D0BA693B691343BB612F4AB3
:102AE000BB6993602D4BDB68BB613B69DB43BA6913
:102AF0001340BB613B685B6803F40013002B03D0F9
:102B0000BA693B691343BB61244ABB69D360234B59
:102B10005B68BB613B69DB43BA691340BB613B68DF
:102B20005B6803F40033002B03D0BA693B6913439D
:102B3000BB611A4ABB695360184B1B68BB613B6998
:102B4000DB43BA691340BB613B685B6803F48033C5
:102B5000002B03D0BA693B691343BB610F4ABB69C1
:102B60001360FB690133FB61FB690F2B7FF6A2AE9B
:102B700000BF00BF2437BD465DF8047B704700BF2F
:102B800000380240003801400000024000040240CA
:102B900000080240000C024000100240003C0140CE
:102BA00080B485B000AF78600B467B807B681A6983
:102BB0007B881340002B02D00123FB7301E000232C
:102BC000FB73FB7B18461437BD465DF8047B7047EA
:102BD00080B483B000AF78600B467B8013467B7077
:102BE0007B78002B03D07A887B689A6103E07B882E
:102BF0001A047B689A6100BF0C37BD465DF8047B00
:102C0000704780B485B000AF78600B467B807B68EE
:102C10005B69FB607A88FB6813401A04FB68D94340
:102C20007B880B401A437B689A6100BF1437BD460E
:102C30005DF8047B7047000080B584B000AF786019
:102C40007B68002B01D101232BE17B6893F83D3099
:102C5000DBB2002B06D17B68002283F83C20786829
:102C6000FFF7F0F97B68242283F83D207B681B681E
:102C70001A687B681B6822F001021A607B681B6877
:102C80001A687B681B6842F400421A607B681B6804
:102C90001A687B681B6822F400421A6001F026F96A
:102CA000F8607B685B68814A934207D8FB68804A7A
:102CB000934294BF01230023DBB206E0FB687D4A08
:102CC000934294BF01230023DBB2002B01D00123E8
:102CD000E7E0FB68784AA2FB03239B0CBB607B68A0
:102CE0001B685B6823F03F017B681B68BA680A4376
:102CF0005A607B681B681B6A23F03F017B685B6836
:102D00006A4A934202D8BB68013309E0BB684FF4BA
:102D1000967202FB03F3694AA2FB03239B0901336A
:102D20007A6812680B4313627B681B68DB6923F4C3
:102D30004F4222F0FF027B685B685C498B4219D8E6
:102D4000FB68591E7B685B685B00B1FBF3F3591CA1
:102D500040F6FC730B40002B0AD0FB68591E7B68C1
:102D60005B685B00B1FBF3F30133C3F30B0351E08A
:102D700004234FE07B689B68002B11D1FB68581E31
:102D80007B6859680B465B000B44B0FBF3F30133DF
:102D9000C3F30B03002B0CBF01230023DBB212E0B3
:102DA000FB68581E7B6859680B469B000B449900D2
:102DB0000B44B0FBF3F30133C3F30B03002B0CBF45
:102DC00001230023DBB2002B01D0012322E07B682A
:102DD0009B68002B0ED1FB68581E7B6859680B4618
:102DE0005B000B44B0FBF3F30133C3F30B0343F479
:102DF00000430FE0FB68581E7B6859680B469B0038
:102E00000B4499000B44B0FBF3F30133C3F30B0302
:102E100043F44043796809681343CB617B681B68BE
:102E20001B6823F0C0017B68DA697B681B6A1A4360
:102E30007B681B680A431A607B681B689B6823F4E5
:102E4000034323F0FF037A6811697A68D26811435B
:102E50007A6812680B4393607B681B68DB6823F019
:102E6000FF017B685A697B689B691A437B681B6812
:102E70000A43DA607B681B681A687B681B6842F04B
:102E800001021A607B6800221A647B68202283F8A2
:102E90003D207B6800221A637B68002283F83E2075
:102EA000002318461037BD4680BD00BFA086010034
:102EB0007F841E00FF083D0083DE1B43D34D62105C
:102EC00080B588B002AFF8607A601A460B467B8105
:102ED00013463B81FFF70CFB7861FB6893F83D30AC
:102EE000DBB2202B40F0E0807B69009319230122A4
:102EF0007049F86800F064F90346002B01D0022302
:102F0000D3E0FB6893F83C30012B01D10223CCE0E5
:102F1000FB68012283F83C20FB681B681B6803F0F8
:102F20000103012B07D0FB681B681A68FB681B684C
:102F300042F001021A60FB681B681A68FB681B6894
:102F400022F400621A60FB68212283F83D20FB68AE
:102F5000102283F83E20FB6800221A64FB687A681E
:102F60005A62FB683A895A85FB685B8D9AB2FB68A6
:102F70001A85FB68504ADA6279897B693A6AF8688F
:102F800000F09CF80346002B01D001238DE00023C4
:102F90003B61FB681B685B693B61FB681B689B6965
:102FA0003B613B6966E07A69396AF86800F022FAA9
:102FB0000346002B0DD0FB681B6C042B07D1FB686C
:102FC0001B681A68FB681B6842F400721A600123D0
:102FD0006BE0FB685B6A1A78FB681B681A61FB6828
:102FE0005B6A5A1CFB685A62FB685B8D9BB2013BB3
:102FF0009AB2FB685A85FB681B8D013B9AB2FB684D
:103000001A85FB681B685B6903F00403042B1BD162
:10301000FB681B8D002B17D0FB685B6A1A78FB6876
:103020001B681A61FB685B6A5A1CFB685A62FB6882
:103030005B8D9BB2013B9AB2FB685A85FB681B8D86
:10304000013B9AB2FB681A857A69396AF86800F020
:1030500019FA0346002B0DD0FB681B6C042B07D11B
:10306000FB681B681A68FB681B6842F400721A60F0
:1030700001231AE0FB681B8D002B94D1FB681B68B1
:103080001A68FB681B6842F400721A60FB68202211
:1030900083F83D20FB68002283F83E20FB68002275
:1030A00083F83C20002300E0022318461837BD4671
:1030B00080BD00BF020010000000FFFF80B588B097
:1030C00002AFF8607A603B600B467B81FB68DB6A8D
:1030D0007B617B69082B06D07B69012B03D07B6960
:1030E00013F5803F08D1FB681B681A68FB681B68F2
:1030F00042F480721A600BE0FB681B6B122B07D145
:10310000FB681B681A68FB681B6842F480721A60CF
:103110003B6800937B6800224FF00111F86800F0D3
:103120004FF80346002B0DD0FB681B681B6803F4A7
:103130008073B3F5807F03D1FB684FF400721A648B
:10314000032335E0FB681B69B3F5804F08D17B8909
:10315000DBB21A46FB681B6802F0FE021A611BE034
:103160007B89DB11DBB203F00603DBB263F00F03F4
:10317000DAB2FB681B681A613B687A680E49F86826
:1031800000F098F80346002B01D0012310E07B8962
:10319000DAB2FB681B681A613B687A680749F8680D
:1031A00000F088F80346002B01D0012300E0002343
:1031B00018461837BD4680BD080001000200010016
:1031C00080B584B000AFF860B9603B601346FB7116
:1031D00048E03B68B3F1FF3F44D0FFF789F902466E
:1031E000BB69D31A3A689A4202D33B68002B39D1A3
:1031F000BB681B0CDBB2012B0DD1FB681B685B6944
:10320000DA43BB6813409BB2002B0CBF01230023A1
:10321000DBB21A460CE0FB681B689B69DA43BB68AB
:1032200013409BB2002B0CBF01230023DBB21A46D4
:10323000FB799A4216D1FB6800221A63FB682022B0
:1032400083F83D20FB68002283F83E20FB681B6C5E
:1032500043F02002FB681A64FB68002283F83C20DC
:10326000012323E0BB681B0CDBB2012B0DD1FB68F3
:103270001B685B69DA43BB6813409BB2002B0CBF31
:1032800001230023DBB21A460CE0FB681B689B6934
:10329000DA43BB6813409BB2002B0CBF0123002311
:1032A000DBB21A46FB799A4293D0002318461037B6
:1032B000BD4680BD80B584B000AFF860B9607A606B
:1032C0003B6071E0FB681B685B6903F48063B3F5E6
:1032D000806F23D1FB681B681A68FB681B6842F487
:1032E00000721A60FB681B686FF480625A61FB68A9
:1032F00000221A63FB68202283F83D20FB6800222D
:1033000083F83E20FB681B6C43F00402FB681A64E0
:10331000FB68002283F83C20012367E07B68B3F15F
:10332000FF3F41D0FFF7E4F802463B68D31A7A68C2
:103330009A4202D37B68002B36D1BB681B0CDBB2F0
:10334000012B0CD1FB681B685B69DA43BB68134037
:103350009BB2002B14BF01230023DBB20BE0FB6800
:103360001B689B69DA43BB6813409BB2002B14BFF8
:1033700001230023DBB2002B16D0FB6800221A6366
:10338000FB68202283F83D20FB68002283F83E2062
:10339000FB681B6C43F02002FB681A64FB68002288
:1033A00083F83C20012321E0BB681B0CDBB2012B1E
:1033B0000CD1FB681B685B69DA43BB6813409BB2A6
:1033C000002B14BF01230023DBB20BE0FB681B685A
:1033D0009B69DA43BB6813409BB2002B14BF0123E7
:1033E0000023DBB2002B7FF46DAF002318461037AB
:1033F000BD4680BD80B584B000AFF860B9607A602A
:1034000034E0F86800F086F80346002B01D0012371
:1034100034E0BB68B3F1FF3F28D0FFF769F80246FC
:103420007B68D31ABA689A4202D3BB68002B1DD1BD
:10343000FB681B685B6903F08003802B16D0FB6878
:1034400000221A63FB68202283F83D20FB680022DB
:1034500083F83E20FB681B6C43F02002FB681A6473
:10346000FB68002283F83C20012307E0FB681B680F
:103470005B6903F08003802BC3D10023184610370B
:10348000BD4680BD80B584B000AFF860B9607A6099
:1034900034E0F86800F03EF80346002B01D0012329
:1034A00034E0BB68B3F1FF3F28D0FFF721F80246B4
:1034B0007B68D31ABA689A4202D3BB68002B1DD12D
:1034C000FB681B685B6903F00403042B16D0FB68E0
:1034D00000221A63FB68202283F83D20FB6800224B
:1034E00083F83E20FB681B6C43F02002FB681A64E3
:1034F000FB68002283F83C20012307E0FB681B687F
:103500005B6903F00403042BC3D100231846103772
:10351000BD4680BD80B483B000AF78607B681B6817
:103520005B6903F48063B3F5806F1BD17B681B6814
:103530006FF480625A617B6800221A637B682022E4
:1035400083F83D207B68002283F83E207B681B6C5B
:1035500043F004027B681A647B68002283F83C20F5
:10356000012300E0002318460C37BD465DF8047BBC
:10357000704780B483B000AF78607B681B684AF600
:10358000AA221A60002318460C37BD465DF8047B5A
:103590007047000080B483B000AF064B01221A6070
:1035A000054B1B687B607B6800BF0C37BD465DF830
:1035B000047B704720000E420070004080B586B04A
:1035C00000AF78607B68002B01D1012367E27B6844
:1035D0001B6803F00103002B75D0884B9B6803F038
:1035E0000C03042B0CD0854B9B6803F00C03082BB9
:1035F00012D1824B5B6803F48003B3F5800F0BD1CB
:103600007E4B1B6803F40033002B5BD07B685B6848
:10361000002B57D1012342E27B685B68B3F5803F02
:1036200006D1764B1B68754A43F4803313601DE066
:103630007B685B68B3F5A02F0CD1704B1B686F4A99
:1036400043F4802313606D4B1B686C4A43F4803352
:1036500013600BE0694B1B68684A23F480331360E6
:10366000664B1B68654A23F4802313607B685B68A4
:10367000002B13D0FEF73CFF386108E0FEF738FF5F
:1036800002463B69D31A642B01D9032307E25B4B43
:103690001B6803F40033002BF0D014E0FEF728FF82
:1036A000386108E0FEF724FF02463B69D31A642B19
:1036B00001D90323F3E1514B1B6803F40033002BC2
:1036C000F0D100E000BF7B681B6803F00203002B11
:1036D00063D04A4B9B6803F00C03002B0BD0474B85
:1036E0009B6803F00C03082B1CD1444B5B6803F46C
:1036F0008003002B16D1414B1B6803F00203002B03
:1037000005D07B68DB68012B01D00123C7E13B4B6F
:103710001B6823F0F8027B681B69DB003749134301
:103720000B603AE07B68DB68002B20D0344B012231
:103730001A60FEF7DDFE386108E0FEF7D9FE0246AA
:103740003B69D31A022B01D90323A8E12B4B1B6839
:1037500003F00203002BF0D0284B1B6823F0F80283
:103760007B681B69DB00254913430B6015E0244B84
:1037700000221A60FEF7BCFE386108E0FEF7B8FED2
:1037800002463B69D31A022B01D9032387E11B4B65
:103790001B6803F00203002BF0D17B681B6803F069
:1037A0000803002B36D07B685B69002B16D0154BC5
:1037B00001221A60FEF79CFE386108E0FEF798FED1
:1037C00002463B69D31A022B01D9032367E10B4B55
:1037D0005B6F03F00203002BF0D01BE0094B0022CB
:1037E0001A60FEF785FE38610EE0FEF781FE0246A4
:1037F0003B69D31A022B07D9032350E1003802405A
:1038000000004742800E4742884B5B6F03F0020383
:10381000002BEAD17B681B6803F00403002B00F047
:1038200097800023FB75814B1B6C03F08053002BAA
:103830000FD10023BB607D4B1B6C7C4A43F080534F
:1038400013647A4B1B6C03F08053BB60BB6801238D
:10385000FB75774B1B6803F48073002B18D1744BF6
:103860001B68734A43F480731360FEF741FE3861AE
:1038700008E0FEF73DFE02463B69D31A022B01D950
:1038800003230CE16A4B1B6803F48073002BF0D018
:103890007B689B68012B06D1644B1B6F634A43F026
:1038A000010313671CE07B689B68052B0CD15F4B01
:1038B0001B6F5E4A43F0040313675C4B1B6F5B4A4C
:1038C00043F0010313670BE0584B1B6F574A23F07B
:1038D00001031367554B1B6F544A23F0040313670E
:1038E0007B689B68002B15D0FEF702FE38610AE06A
:1038F000FEF7FEFD02463B69D31A41F2883293423D
:1039000001D90323CBE0494B1B6F03F00203002BCB
:10391000EED014E0FEF7ECFD38610AE0FEF7E8FDBA
:1039200002463B69D31A41F28832934201D90323FC
:10393000B5E03E4B1B6F03F00203002BEED1FB7D85
:10394000012B05D1394B1B6C384A23F0805313648B
:103950007B689B69002B00F0A180344B9B6803F0CF
:103960000C03082B5CD07B689B69022B41D1314B47
:1039700000221A60FEF7BCFD386108E0FEF7B8FDD2
:1039800002463B69D31A022B01D9032387E0274B58
:103990001B6803F00073002BF0D17B68DA697B6849
:1039A0001B6A1A437B685B6A9B011A437B689B6AAC
:1039B0005B08013B1B041A437B68DB6A1B061B493F
:1039C00013434B601B4B01221A60FEF791FD3861D7
:1039D00008E0FEF78DFD02463B69D31A022B01D9A0
:1039E00003235CE0114B1B6803F00073002BF0D045
:1039F00054E0104B00221A60FEF77AFD386108E0AF
:103A0000FEF776FD02463B69D31A022B01D9032348
:103A100045E0064B1B6803F00073002BF0D13DE03E
:103A20007B689B69012B07D1012338E000380240F5
:103A300000700040600047421B4B5B68FB607B6886
:103A40009B69012B28D0FB6803F480027B68DB694B
:103A50009A4221D1FB6803F03F027B681B6A9A42BD
:103A60001AD1FA6847F6C07313407A68526A920115
:103A7000934211D1FB6803F440327B689B6A5B0878
:103A8000013B1B049A4207D1FB6803F070627B681C
:103A9000DB6A1B069A4201D0012300E0002318468E
:103AA0001837BD4680BD00BF0038024080B584B0E5
:103AB00000AF786039607B68002B01D10123CCE036
:103AC000684B1B6803F007033A689A420CD9654BB0
:103AD0003A68D2B21A70634B1B6803F007033A6866
:103AE0009A4201D00123B8E07B681B6803F002030F
:103AF000002B20D07B681B6803F00403002B05D04B
:103B0000594B9B68584A43F4E05393607B681B68A9
:103B100003F00803002B05D0534B9B68524A43F433
:103B200060439360504B9B6823F0F0027B689B6876
:103B30004D4913438B607B681B6803F00103002B26
:103B400044D07B685B68012B07D1474B1B6803F4AB
:103B50000033002B19D101237FE07B685B68022BC7
:103B600003D07B685B68032B07D13F4B1B6803F0D6
:103B70000073002B09D101236FE03B4B1B6803F05E
:103B80000203002B01D1012367E0374B9B6823F030
:103B900003027B685B68344913438B60FEF7A8FC23
:103BA000F8600AE0FEF7A4FC0246FB68D31A41F273
:103BB0008832934201D903234FE02B4B9B6803F0DB
:103BC0000C027B685B689B009A42EBD1254B1B681B
:103BD00003F007033A689A420CD2224B3A68D2B2F9
:103BE0001A70204B1B6803F007033A689A4201D011
:103BF000012332E07B681B6803F00403002B08D02C
:103C0000194B9B6823F4E0527B68DB681649134329
:103C10008B607B681B6803F00803002B09D0124BF4
:103C20009B6823F460427B681B69DB000E491343E9
:103C30008B6000F089F802460B4B9B681B0903F070
:103C40000F030A49CB5C22FA03F3094A1360094BBC
:103C50001B681846FEF708FC002318461037BD46BF
:103C600080BD00BF003C024000380240D89E0008E2
:103C7000040000200800002080B58CB000AFF86080
:103C8000B9607A60FB68002B29D10023BB612B4B04
:103C90001B6B2A4A43F001031363284B1B6B03F091
:103CA0000103BB61BB694FF48073FB6102233B627C
:103CB0000323BB6200237B620023FB6207F11C032A
:103CC00019461F48FEF7E8FD1C4B9B6823F0EC6289
:103CD000B9687B680B43194913438B6029E00023C3
:103CE0007B61164B1B6B154A43F004031363134BA4
:103CF0001B6B03F004037B617B694FF40073FB6172
:103D000002233B620323BB6200237B620023FB622E
:103D100007F11C0319460B48FEF7BEFD074B9B68D5
:103D200023F078427B68D900BB680B4303491343F7
:103D30008B6000BF3037BD4680BD00BF00380240F9
:103D400000000240000802402DE9B04F90B000AFE3
:103D500000237B630023FB6300233B630023BB63DF
:103D6000594B9B6803F00C03082B0DD0082B00F275
:103D7000A180002B02D0042B03D09BE0534BBB63EC
:103D80009BE0534BBB6398E04F4B5B6803F03F03F2
:103D90007B634D4B5B6803F48003002B28D04A4BB8
:103DA0005B689B0900223B627A623B6AC3F30800AE
:103DB0000021474B03FB01F2002300FB03F31344F4
:103DC000434AA0FB0212FA620A46BA62FA6A134434
:103DD000FB627B6B0022BB61FA61D7E90623D7E95E
:103DE0000A01FCF755FA02460B461346FB6353E003
:103DF000354B5B689B0900223B617A613B69C3F3E9
:103E0000080A4FF0000B52465B464FF000004FF09F
:103E10000001590141EAD261500102460B46B2EB62
:103E20000A0863EB0B094FF000024FF000034FEA62
:103E3000891343EA98634FEA8812B2EB080463EBF4
:103E400009054FF000024FF00003EB0043EA547302
:103E5000E20014461D4614EB0A033B6045EB0B03DE
:103E60007B604FF000024FF00003D7E90045294680
:103E70008B02214643EA915321468A021046194695
:103E80007B6B0022BB60FA60D7E90223FCF700FAE3
:103E900002460B461346FB630B4B5B681B0C03F09F
:103EA000030301335B003B63FA6B3B6BB2FBF3F341
:103EB000BB6302E0054BBB6300BFBB6B18464037DA
:103EC000BD46BDE8B08F00BF003802400024F400BA
:103ED00040787D0180B400AF034B1B681846BD4697
:103EE0005DF8047B704700BF0400002080B500AF80
:103EF000FFF7F0FF0246054B9B689B0A03F00703A0
:103F00000349CB5C22FA03F3184680BD0038024017
:103F1000E89E000880B500AFFFF7DCFF0246054BC6
:103F20009B685B0B03F007030349CB5C22FA03F3A6
:103F3000184680BD00380240E89E000880B586B073
:103F400000AF786000237B6100233B617B681B68C6
:103F500003F00103002B05D17B681B6803F0040309
:103F6000002B38D0684B00221A60FEF7C1FA786146
:103F700008E0FEF7BDFA02467B69D31A022B01D98D
:103F80000323BDE0614B1B6803F00063002BF0D1FD
:103F90007B685A687B689B689B011A437B68DB6877
:103FA0001B075A491343C1F88430574B01221A604A
:103FB000FEF79EFA786108E0FEF79AFA02467B69FE
:103FC000D31A022B01D903239AE0504B1B6803F04C
:103FD0000063002BF0D07B681B6803F00203002B0A
:103FE00000F083800023FB60484B1B6C474A43F082
:103FF00080531364454B1B6C03F08053FB60FB68DC
:10400000434B1B68424A43F480731360FEF770FA17
:10401000786108E0FEF76CFA02467B69D31A022B3E
:1040200001D903236CE03A4B1B6803F48073002B27
:10403000F0D0364B1B6F03F440733B613B69002BA0
:104040002FD07B681B6903F440733A699A4228D0E9
:104050002E4B1B6F23F440733B612E4B01221A60E1
:104060002C4B00221A60294A3B691367274B1B6FB0
:1040700003F00103012B14D1FEF73AFA78610AE04C
:10408000FEF736FA02467B69D31A41F28832934230
:1040900001D9032334E01D4B1B6F03F00203002BF7
:1040A000EED07B681B6903F44073B3F5407F0DD1FC
:1040B000164B9B6823F4F8127B681B6923F070434E
:1040C00023F44073114913438B6005E00F4B9B6849
:1040D0000E4A23F4F81393600C4B1A6F7B681B692C
:1040E000C3F30B03094913430B677B681B6803F099
:1040F0000803002B03D07B681A7D074B1A6000234E
:1041000018461837BD4680BD680047420038024057
:1041100000700040400E4742E011474280B584B035
:1041200000AF78600123FB737B68002B01D1012372
:1041300073E07B685B7FDBB2002B05D17B680022DC
:104140001A777868FDF7C6FF7B6802225A777B688A
:104150001B68DB6803F01003102B55D07B681B68CD
:10416000CA225A627B681B6853225A62786800F040
:1041700049FA0346FB73FB7B002B2CD17B681B6841
:104180009B687A68126823F4E00323F0400393608D
:104190007B681B6899687B685A687B681B691A434F
:1041A0007B685B691A437B681B680A439A607B687B
:1041B0001B687A68D2681A617B681B6819697B681A
:1041C0009B681A047B681B680A431A61786800F0D0
:1041D00050FA0346FB73FB7B002B10D17B681B68F6
:1041E0001A6C7B681B6822F480221A647B681B6847
:1041F000196C7B689A697B681B680A431A647B6840
:104200001B68FF225A6201E00023FB73FB7B002B3B
:1042100002D17B6801225A77FB7B18461037BD46D6
:1042200080BD90B587B000AFF860B9607A600023B8
:104230007B61FB681B7F012B01D1022387E0FB68B8
:1042400001221A77FB6802225A777B68002B26D15D
:10425000FB681B689B6803F04003002B02D1BB681E
:104260000022DA70BB681B78184600F027FA034674
:104270001C04BB685B78184600F020FA03461B025A
:104280001C43BB689B78184600F018FA034644EAC2
:104290000302BB68DB789B0513437B6118E0FB6876
:1042A0001B689B6803F04003002B02D1BB6800220F
:1042B000DA70BB681B781A04BB685B781B02134377
:1042C000BA6892781A43BB68DB789B0513437B611D
:1042D000FB681B68CA225A62FB681B6853225A6239
:1042E000F86800F08FF90346FB74FB7C002B20D1AB
:1042F000FB681A687B6903F07F3323F0FE43136089
:10430000FB681B689A68FB681B6822F480229A602D
:10431000FB681B689968BB68DA68BB681B691A434D
:10432000FB681B680A439A60F86800F0A2F903462C
:10433000FB74FB7C002B02D1FB6801225A77FB68DF
:104340001B68FF225A62FB6800221A77FB7C184622
:104350001C37BD4690BD80B586B000AFF860B9602F
:104360007A6000237B61FB681B689A6ABB685A60AD
:10437000FB681B681B69C3F30E02BB689A60FB688D
:104380001B681B6803F07F3323F0FE437B617B696E
:104390001B0CDBB203F03F03DAB2BB681A707B6917
:1043A0001B0ADBB203F07F03DAB2BB685A707B6989
:1043B000DBB203F07F03DAB2BB689A707B699B0DB6
:1043C000DBB203F00103DAB2BB68DA707B68002B62
:1043D0001AD1BB681B78184600F08EF903461A46BE
:1043E000BB681A70BB685B78184600F085F9034615
:1043F0001A46BB685A70BB689B78184600F07CF977
:1044000003461A46BB689A70002318461837BD4603
:1044100080BD90B587B000AFF860B9607A600023C6
:104420007B61FB681B7F012B01D1022371E0FB68DC
:1044300001221A77FB6802225A777B68002B0ED183
:10444000BB685B7803F01003002B08D0BB685B7877
:1044500023F01003DBB20A33DAB2BB685A707B6810
:10446000002B1CD1BB68DB78184600F027F9034607
:104470001C04BB685B78184600F020F903461B0259
:104480001C43BB689B78184600F018F9034644EAC1
:104490000302BB681B785B0313437B610EE0BB68C0
:1044A000DB781A04BB685B781B021343BA68927806
:1044B0001A43BB681B785B0313437B61FB681B6873
:1044C000CA225A62FB681B6853225A62F86800F0DD
:1044D00099F80346FB74FB7C002B0CD1FB681A682F
:1044E0007B6923F07F4323F0C0035360F86800F03A
:1044F000C0F80346FB74FB7C002B02D1FB68012251
:104500005A77FB681B68FF225A62FB6800221A7701
:10451000FB7C18461C37BD4690BD80B586B000AF09
:10452000F860B9607A6000237B61FB681B685B6898
:1045300023F07F4323F0C0037B617B691B0CDAB25D
:10454000BB68DA707B691B0ADBB203F01F03DAB2C7
:10455000BB685A707B69DBB203F03F03DAB2BB6819
:104560009A707B695B0BDBB203F00703DAB2BB68BE
:104570001A707B68002B1AD1BB68DB78184600F0F4
:10458000BBF803461A46BB68DA70BB685B7818460E
:1045900000F0B2F803461A46BB685A70BB689B78B5
:1045A000184600F0A9F803461A46BB689A70002323
:1045B00018461837BD4680BD80B584B000AF78601E
:1045C0000023FB607B681B680D4ADA60FDF790FFF3
:1045D000F86009E0FDF78CFF0246FB68D31AB3F5DB
:1045E0007A7F01D9032307E07B681B68DB6803F04F
:1045F0002003002BEED0002318461037BD4680BDA7
:104600005F3F010080B584B000AF78600023BB60DD
:104610000023FB737B681B68DB6803F04003002BFF
:1046200022D17B681B68DA687B681B6842F08002D5
:10463000DA60FDF75DFFB8600CE0FDF759FF024658
:10464000BB68D31AB3F57A7F04D97B6804225A7702
:104650000123FB737B681B68DB6803F04003002BBE
:1046600002D1FB7B012BE8D1FB7B18461037BD46FE
:1046700080BD80B584B000AF78600023FB737B6899
:104680001B68DA687B681B6822F08002DA607B684E
:104690001B689B6803F02003002B0AD17868FFF7A2
:1046A0008BFF0346002B04D07B6804225A7701233A
:1046B000FB73FB7B18461037BD4680BD80B485B0C8
:1046C00000AF0346FB710023FB6005E0FB6801338C
:1046D000FB60FB790A3BFB71FB79092BF6D8FB6881
:1046E000DBB21B01DAB2FB791343DBB21846143795
:1046F000BD465DF8047B704780B485B000AF0346CB
:10470000FB710023FB60FB791B09DBB21A461346E1
:104710009B0013445B00FB60FB68DAB2FB7903F09B
:104720000F03DBB21344DBB218461437BD465DF805
:10473000047B704780B487B000AFF860B9607A60DE
:1047400000237B61FB681B6850337B61BB689B0067
:104750007A6913447B617B697A681A6000BF1C37F1
:10476000BD465DF8047B704780B485B000AF7860CB
:1047700039600023FB607B681B685033FB603B683B
:104780009B00FA681344FB60FB681B6818461437EB
:10479000BD465DF8047B704780B582B000AF78609D
:1047A0007B68002B01D101237BE07B685B6A002BD7
:1047B00008D17B685B68B3F5827F09D07B680022F3
:1047C000DA6105E07B6800221A617B6800225A6189
:1047D0007B6800229A627B6893F85130DBB2002B31
:1047E00006D17B68002283F850207868FDF79EFC94
:1047F0007B68022283F851207B681B681A687B68FB
:104800001B6822F040021A607B685B6803F48272C6
:104810007B689B6803F404431A437B68DB6803F4FA
:1048200000631A437B681B6903F002031A437B6829
:104830005B6903F001031A437B689B6903F400730F
:104840001A437B68DB6903F038031A437B681B6AF1
:1048500003F0800342EA03017B689B6A03F4005281
:104860007B681B680A431A607B689B691B0C03F01A
:1048700004017B685B6A03F010027B681B680A43D3
:104880005A607B681B68DA697B681B6822F40062E7
:10489000DA617B6800225A657B68012283F8512027
:1048A000002318460837BD4680BD80B588B000AFEC
:1048B000F860B9603B601346FB80FDF719FEF861B4
:1048C000FB887B83FB6893F85130DBB2012B01D06E
:1048D00002232AE1BB68002B02D0FB88002B01D108
:1048E000012322E1FB6893F85030012B01D1022310
:1048F0001BE1FB68012283F85020FB68032283F848
:104900005120FB6800225A65FB68BA681A63FB688D
:10491000FA889A86FB68FA88DA86FB6800229A632E
:10492000FB6800229A87FB680022DA87FB68002276
:104930005A64FB6800221A64FB689B68B3F5004F59
:104940000FD1FB681B681A68FB681B6822F04002E5
:104950001A60FB681B681A68FB681B6842F4804297
:104960001A60FB681B681B6803F04003402B07D0EC
:10497000FB681B681A68FB681B6842F040021A60FB
:10498000FB68DB68B3F5006F52D1FB685B68002BF6
:1049900002D07B8B012B45D1FB681B6B1A88FB680F
:1049A0001B68DA60FB681B6B9A1CFB681A63FB6868
:1049B000DB8E9BB2013B9AB2FB68DA8632E0FB6881
:1049C0001B689B6803F00203022B12D1FB681B6B70
:1049D0001A88FB681B68DA60FB681B6B9A1CFB6813
:1049E0001A63FB68DB8E9BB2013B9AB2FB68DA86E6
:1049F00018E0FDF77DFD0246FB69D31A3A689A423A
:104A000003D83B68B3F1FF3F02D13B68002B09D1CB
:104A1000FB68012283F85120FB68002283F85020B4
:104A2000032382E0FB68DB8E9BB2002BC7D153E0EF
:104A3000FB685B68002B02D07B8B012B47D1FB68A6
:104A40001A6BFB681B680C3312781A70FB681B6BBF
:104A50005A1CFB681A63FB68DB8E9BB2013B9AB25F
:104A6000FB68DA8633E0FB681B689B6803F002038F
:104A7000022B13D1FB681A6BFB681B680C3312788E
:104A80001A70FB681B6B5A1CFB681A63FB68DB8E91
:104A90009BB2013B9AB2FB68DA8618E0FDF728FD6D
:104AA0000246FB69D31A3A689A4203D83B68B3F1CD
:104AB000FF3F02D13B68002B09D1FB68012283F83C
:104AC0005120FB68002283F8502003232DE0FB686F
:104AD000DB8E9BB2002BC6D1FA693968F86800F00A
:104AE00059FA0346002B02D0FB6820225A65FB6866
:104AF0009B68002B0AD100237B61FB681B68DB6885
:104B00007B61FB681B689B687B617B69FB6801229A
:104B100083F85120FB68002283F85020FB685B6D0E
:104B2000002B01D0012300E0002318462037BD46AA
:104B300080BD80B58AB000AFF860B9607A607B80D4
:104B400001237B62FDF7D4FC3862FB6893F8513097
:104B5000FB77FB685B68BB617B88FB82FB7F012B7B
:104B60000CD0BB69B3F5827F06D1FB689B68002B34
:104B700002D1FB7F042B01D002237FE1BB68002B15
:104B800005D07B68002B02D07B88002B01D101234C
:104B900074E1FB6893F85030012B01D102236DE1E1
:104BA000FB68012283F85020FB6893F85130DBB298
:104BB000042B03D0FB68052283F85120FB680022F8
:104BC0005A65FB687A689A63FB687A88DA87FB68BB
:104BD0007A889A87FB68BA681A63FB687A88DA86EB
:104BE000FB687A889A86FB6800221A64FB680022B8
:104BF0005A64FB681B681B6803F04003402B07D016
:104C0000FB681B681A68FB681B6842F040021A6068
:104C1000FB68DB68B3F5006F7ED1FB685B68002B37
:104C200002D0FB8A012B6CD1FB681B6B1A88FB68D6
:104C30001B68DA60FB681B6B9A1CFB681A63FB68D5
:104C4000DB8E9BB2013B9AB2FB68DA8659E0FB68C7
:104C50001B689B6803F00203022B1BD1FB68DB8EF1
:104C60009BB2002B16D07B6A012B13D1FB681B6B08
:104C70001A88FB681B68DA60FB681B6B9A1CFB6870
:104C80001A63FB68DB8E9BB2013B9AB2FB68DA8643
:104C900000237B62FB681B689B6803F00103012B08
:104CA00019D1FB68DB8F9BB2002B14D0FB681B680B
:104CB000DA68FB689B6B92B21A80FB689B6B9A1C4C
:104CC000FB689A63FB68DB8F9BB2013B9AB2FB687F
:104CD000DA8701237B62FDF70BFC02463B6AD31A9D
:104CE0003A6B9A420DD83B6BB3F1FF3F09D0FB689A
:104CF000012283F85120FB68002283F8502003230F
:104D0000BCE0FB68DB8E9BB2002BA0D1FB68DB8F85
:104D10009BB2002B9BD182E0FB685B68002B02D02A
:104D2000FB8A012B71D1FB681A6BFB681B680C3383
:104D300012781A70FB681B6B5A1CFB681A63FB68BD
:104D4000DB8E9BB2013B9AB2FB68DA865DE0FB68C2
:104D50001B689B6803F00203022B1CD1FB68DB8EEF
:104D60009BB2002B17D07B6A012B14D1FB681A6B06
:104D7000FB681B680C3312781A70FB681B6B5A1C9B
:104D8000FB681A63FB68DB8E9BB2013B9AB2FB683F
:104D9000DA8600237B62FB681B689B6803F00103D3
:104DA000012B19D1FB68DB8F9BB2002B14D0FB6861
:104DB0001B68DA68FB689B6BD2B21A70FB689B6B4E
:104DC0005A1CFB689A63FB68DB8F9BB2013B9AB26B
:104DD000FB68DA8701237B62FDF78AFB02463B6AA8
:104DE000D31A3A6B9A4203D83B6BB3F1FF3F02D11F
:104DF0003B6B002B09D1FB68012283F85120FB6833
:104E0000002283F85020032338E0FB68DB8E9BB23E
:104E1000002B9CD1FB68DB8F9BB2002B97D13A6AA9
:104E2000396BF86800F0B6F80346002B08D0FB6831
:104E300020225A65FB68002283F8502001231DE0E0
:104E4000FB689B68002B0AD100233B61FB681B6851
:104E5000DB683B61FB681B689B683B613B69FB68E7
:104E6000012283F85120FB68002283F85020FB6860
:104E70005B6D002B01D0012300E00023184628378A
:104E8000BD4680BD80B588B000AFF860B9603B60BA
:104E90001346FB71FDF72CFB0246BB6A9B1A3A686E
:104EA0001344FB61FDF724FBB861394B1B685B01C0
:104EB0001B0DFA6902FB03F37B6154E03B68B3F11D
:104EC000FF3F50D0FDF714FB0246BB69D31AFA69C5
:104ED0009A4202D9FB69002B3DD1FB681B685A68D6
:104EE000FB681B6822F0E0025A60FB685B68B3F560
:104EF000827F11D1FB689B68B3F5004F04D0FB683B
:104F00009B68B3F5806F07D1FB681B681A68FB6864
:104F10001B6822F040021A60FB689B6AB3F5005FD1
:104F20000FD1FB681B681A68FB681B6822F40052EB
:104F30001A60FB681B681A68FB681B6842F4005221
:104F40001A60FB68012283F85120FB68002283F875
:104F50005020032317E07B69002B01D10023FB6164
:104F60007B69013B7B61FB681B689A68BB681340E7
:104F7000BA689A420CBF01230023DBB21A46FB79C0
:104F80009A429BD1002318462037BD4680BD00BF02
:104F90000400002080B588B002AFF860B9607A6084
:104FA0007B680093BB6801220221F868FFF76AFF63
:104FB0000346002B07D0FB685B6D43F02002FB68C3
:104FC0005A65032332E01B4B1B681B4AA2FB0323D9
:104FD0005B0D4FF47A7202FB03F37B61FB685B6845
:104FE000B3F5827F12D17B680093BB6800228021D9
:104FF000F868FFF747FF0346002B16D0FB685B6D90
:1050000043F02002FB685A6503230FE07B69002B05
:105010000AD07B69013B7B61FB681B689B6803F0DE
:105020008003802BF2D000E000BF00231846183721
:10503000BD4680BD04000020819F5E1680B582B011
:1050400000AF78607B68002B01D1012342E07B68D0
:1050500093F84130DBB2002B06D17B68002283F845
:1050600040207868FDF7AAF87B68242283F8412065
:105070007B681B68DA687B681B6822F40052DA6080
:10508000786800F0DBFC7B681B681A697B681B682A
:1050900022F490421A617B681B685A697B681B681E
:1050A00022F02A025A617B681B68DA687B681B68F9
:1050B00042F40052DA607B6800225A647B68202246
:1050C00083F841207B68202283F842207B680022FD
:1050D0005A63002318460837BD4680BD80B584B0AA
:1050E00000AFF860B9601346FB80FB6893F842306C
:1050F000DBB2202B12D1BB68002B02D0FB88002B27
:1051000001D101230BE0FB6800221A63FB881A46D9
:10511000B968F86800F0BAFA034600E002231846BE
:105120001037BD4680BD000080B5BAB000AF7860D2
:105130007B681B681B68C7F8E4307B681B68DB680A
:10514000C7F8E0307B681B685B69C7F8DC30002378
:10515000C7F8D8300023C7F8D430D7F8E43003F0CC
:105160000F03C7F8D830D7F8D830002B0FD1D7F8B5
:10517000E43003F02003002B09D0D7F8E03003F02F
:105180002003002B03D0786800F099FB5BE2D7F88E
:10519000D830002B00F0DE80D7F8DC3003F00103BC
:1051A000002B06D1D7F8E03003F49073002B00F009
:1051B000D180D7F8E43003F00103002B0BD0D7F8EF
:1051C000E03003F48073002B05D07B685B6C43F008
:1051D00001027B685A64D7F8E43003F00403002B23
:1051E0000BD0D7F8DC3003F00103002B05D07B682F
:1051F0005B6C43F002027B685A64D7F8E43003F03A
:105200000203002B0BD0D7F8DC3003F00103002B96
:1052100005D07B685B6C43F004027B685A64D7F866
:10522000E43003F00803002B11D0D7F8E03003F08E
:105230002003002B05D1D7F8DC3003F00103002B4D
:1052400005D07B685B6C43F008027B685A647B681E
:105250005B6C002B00F0F281D7F8E43003F0200300
:10526000002B08D0D7F8E03003F02003002B02D049
:10527000786800F024FB7B681B685B6903F04003DF
:10528000402B0CBF01230023DBB2C7F8D4307B686E
:105290005B6C03F00803002B03D1D7F8D430002B4C
:1052A0004FD0786800F02CFA7B681B685B6903F0CC
:1052B0004003402B41D17B681B681433C7F89C30F6
:1052C000D7F89C3053E8003FC7F89830D7F89830AB
:1052D00023F04003C7F8D0307B681B681433D7F83D
:1052E000D020C7F8A820C7F8A430D7F8A410D7F862
:1052F000A82041E80023C7F8A030D7F8A030002B41
:10530000D9D17B68DB6B002B13D07B68DB6B7E4ACB
:105310001A657B68DB6B1846FDF79BFA0346002B8A
:1053200016D07B68DB6B1B6D7A68D26B1046984792
:105330000EE0786800F094F90AE0786800F090F9DF
:1053400006E0786800F08CF97B6800225A6475E109
:1053500000BF73E17B681B6B012B40F04F81D7F8D6
:10536000E43003F01003002B00F04881D7F8E03060
:1053700003F01003002B00F041810023BB607B6829
:105380001B681B68BB607B681B685B68BB60BB6895
:105390007B681B685B6903F04003402B40F0B680DC
:1053A0007B68DB6B1B685B68A7F8BE30B7F8BE3064
:1053B000002B00F045817B689B8DB7F8BE209A4298
:1053C00080F03E817B68B7F8BE20DA857B68DB6BB6
:1053D000DB69B3F5807F00F088807B681B680C3345
:1053E000C7F88830D7F8883053E8003FC7F88430D2
:1053F000D7F8843023F48073C7F8B8307B681B6813
:105400000C33D7F8B820C7F89420C7F89030D7F8F5
:105410009010D7F8942041E80023C7F88C30D7F8D3
:105420008C30002BD9D17B681B6814337B677B6F72
:1054300053E8003F3B673B6F23F00103C7F8B430EC
:105440007B681B681433D7F8B420C7F88020FB674B
:10545000F96FD7F8802041E80023BB67BB6F002BB2
:10546000E1D17B681B6814333B663B6E53E8003F19
:10547000FB65FB6D23F04003C7F8B0307B681B6809
:105480001433D7F8B020FA66BB66B96EFA6E41E8FD
:1054900000237B667B6E002BE3D17B68202283F8A0
:1054A00042207B6800221A637B681B680C33FB6414
:1054B000FB6C53E8003FBB64BB6C23F01003C7F8E0
:1054C000AC307B681B680C33D7F8AC20BA657B65C1
:1054D000796DBA6D41E800233B653B6D002BE3D14C
:1054E0007B68DB6B1846FDF744F97B6802225A6340
:1054F0007B689A8D7B68DB8D9BB2D31A9BB2194671
:10550000786800F0B7F89BE0C75700087B689A8D71
:105510007B68DB8D9BB2D31AA7F8CE307B68DB8D1E
:105520009BB2002B00F08E80B7F8CE30002B00F03D
:1055300089807B681B680C33BB63BB6B53E8003FFF
:105540007B637B6B23F49073C7F8C8307B681B6860
:105550000C33D7F8C8207A643B64396C7A6C41E824
:105560000023FB63FB6B002BE3D17B681B681433C8
:105570007B627B6A53E8003F3B623B6A23F0010396
:10558000C7F8C4307B681B681433D7F8C4203A636B
:10559000FB62F96A3A6B41E80023BB62BB6A002BED
:1055A000E3D17B68202283F842207B6800221A63C3
:1055B0007B681B680C333B613B6953E8003FFB6031
:1055C000FB6823F01003C7F8C0307B681B680C33FE
:1055D000D7F8C020FA61BB61B969FA6941E80023D4
:1055E0007B617B69002BE3D17B6802225A63B7F8A9
:1055F000CE301946786800F03DF823E0D7F8E43063
:1056000003F08003002B09D0D7F8E03003F08003CB
:10561000002B03D0786800F0EAF814E0D7F8E43003
:1056200003F04003002B0ED0D7F8E03003F0400326
:10563000002B08D0786800F02AF904E000BF02E0EF
:1056400000BF00E000BFE837BD4680BD80B483B036
:1056500000AF786000BF0C37BD465DF8047B704733
:1056600080B483B000AF786000BF0C37BD465DF8F2
:10567000047B704780B483B000AF78600B467B80BA
:1056800000BF0C37BD465DF8047B704780B485B021
:1056900000AFF860B9601346FB80FB68BA689A6295
:1056A000FB68FA889A85FB68FA88DA85FB6800222D
:1056B0005A64FB68222283F84220FB681B69002B96
:1056C00007D0FB681B68DA68FB681B6842F48072CD
:1056D000DA60FB681B685A69FB681B6842F00102CC
:1056E0005A61FB681B68DA68FB681B6842F020029D
:1056F000DA60002318461437BD465DF8047B704716
:1057000080B495B000AF78607B681B680C337B6316
:105710007B6B53E8003F3B633B6B23F49073FB646C
:105720007B681B680C33FA6C3A64FB63F96B3A6C68
:1057300041E80023BB63BB6B002BE5D17B681B6892
:1057400014333B623B6A53E8003FFB61FB6923F083
:105750000103BB647B681B681433BA6CFA62BB62DA
:10576000B96AFA6A41E800237B627B6A002BE5D1C3
:105770007B681B6B012B19D17B681B680C33FB60AA
:10578000FB6853E8003FBB60BB6823F010037B64F9
:105790007B681B680C337A6CBA617B617969BA6982
:1057A00041E800233B613B69002BE5D17B68202267
:1057B00083F842207B6800221A6300BF5437BD463D
:1057C0005DF8047B704780B584B000AF78607B687B
:1057D0009B6BFB60FB680022DA85FB680022DA84A1
:1057E000F868FFF73DFF00BF1037BD4680BD80B4AD
:1057F00085B000AF78607B6893F84130DBB2212B35
:105800003ED17B689B68B3F5805F14D17B681B69D0
:10581000002B10D17B681B6AFB60FB681B881A4653
:105820007B681B68C2F308025A607B681B6A9A1C7B
:105830007B681A6208E07B681B6A591C7A681162EF
:105840001A787B681B685A607B68DB8C9BB2013BD3
:105850009BB27A681946D184002B0FD17B681B68F4
:10586000DA687B681B6822F08002DA607B681B685C
:10587000DA687B681B6842F04002DA60002300E0CF
:10588000022318461437BD465DF8047B704780B587
:1058900082B000AF78607B681B68DA687B681B6841
:1058A00022F04002DA607B68202283F84120786889
:1058B000FFF7CCFE002318460837BD4680BD80B5F3
:1058C0008CB000AF78607B6893F84230DBB2222B5B
:1058D00040F0AE807B689B68B3F5805F17D17B6832
:1058E0001B69002B13D10023FB627B689B6ABB62A0
:1058F0007B681B685B689BB2C3F308039AB2BB6A00
:105900001A807B689B6A9A1C7B689A6226E07B6897
:105910009B6AFB620023BB627B689B68B3F5805F78
:1059200007D07B689B68002B0AD17B681B69002B22
:1059300006D17B681B685B68DAB2FB6A1A7008E004
:105940007B681B685B68DBB203F07F03DAB2FB6A3B
:105950001A707B689B6A5A1C7B689A627B68DB8D35
:105960009BB2013B9BB27A681946D185002B5DD171
:105970007B681B68DA687B681B6822F02002DA60AB
:105980007B681B68DA687B681B6822F48072DA60C7
:105990007B681B685A697B681B6822F001025A61A8
:1059A0007B68202283F842207B6800225A637B6850
:1059B0001B6B012B35D17B6800221A637B681B6847
:1059C0000C337B617B6953E8003F3B613B6923F00B
:1059D00010037B627B681B680C337A6A3A62FB6156
:1059E000F9693A6A41E80023BB61BB69002BE5D144
:1059F0007B681B681B6803F01003102B0AD100237F
:105A0000FB607B681B681B68FB607B681B685B68CE
:105A1000FB60FB687B689B8D19467868FFF72AFE60
:105A200002E07868FAF7ACFD002302E0002300E012
:105A3000022318463037BD4680BD00002DE9B04F27
:105A4000C0B000AFC7F8F400D7F8F4301B681B698A
:105A500023F44050D7F8F430D968D7F8F4301A68F6
:105A600040EA01031361D7F8F4309A68D7F8F430AC
:105A70001B691A43D7F8F4305B691A43D7F8F4303E
:105A8000DB691343C7F8F830D7F8F4301B68DB68DC
:105A900023F4164121F00C01D7F8F4301A68D7F836
:105AA000F8300B43D360D7F8F4301B685B6923F4FC
:105AB0004070D7F8F4309969D7F8F4301A6840EAA2
:105AC00001035361D7F8F4301A688F4B9A4205D01E
:105AD000D7F8F4301A688D4B9A4204D1FEF71AFABF
